:100000000C9472000C9493000C9493000C94930045
:100010000C9493000C9493000C9493000C94930014
:100020000C9493000C9493000C9493000C94930004
:100030000C9493000C9493000C9493000C949300F4
:100040000C9493000C9493000C9493000C949300E4
:100050000C9493000C9493000C9493000C949300D4
:100060000C9493000C9493000C9493000C949300C4
:100070000C9493000C9493000C9493000C949300B4
:100080000C9493000C9493000C9493000C949300A4
:100090000C9493000C9493000C9493000C94930094
:1000A0000C9493000C9493000C9493000C94930084
:1000B0000C9493000C9493000C9493000C94930074
:1000C0000C9493000C9493000C9493000C94930064
:1000D0000C9493000C9493000C9493000C94930054
:1000E0000C94930011241FBECFEFD1E2DEBFCDBF31
:1000F00000E00CBF12E0A0E0B2E0ECEFF6E000E0C0
:100100000BBF02C007900D92A231B107D9F722E0D0
:10011000A2E1B2E001C01D92A731B207E1F70E944F
:10012000F7020C947C030C9400002FEF33E0DC0109
:100130000E9433032CE231E040E050E00E941703BC
:1001400020930F0230931002295D230F20952093F6
:1001500011020895CF93DF930E949500C9E0D2E089
:1001600089910E944D0282E0C231D807C9F7DF9120
:10017000CF9108958093060290930702895D890FBD
:100180008095809308020895CF93DF930E94BA0070
:10019000C0E0D2E089910E944D0282E0C930D807C8
:1001A000C9F7DF91CF9108958F929F92AF92BF923E
:1001B000CF92DF92EF92FF92CF9380910F02B09196
:1001C0001002A0E0A80FB11D2CE231E00E94330321
:1001D0002FEF33E040E050E00E94170349015A013D
:1001E00084E40E9446028AE30E944602C501B401EB
:1001F00024E630E040E050E00E9417038AE0C82E79
:10020000D12CE12CF12CCA01B901A70196010E9461
:100210001703862F805D0E944602C501B401A70125
:1002200096010E941703C62FCA01B901A7019601C2
:100230000E941703862F805D0E9446028C2F805DEE
:100240000E9446028FE20E94460280E2CF91FF9018
:10025000EF90DF90CF90BF90AF909F908F900C94D5
:100260004602660F771F660F771F02C09595879528
:100270006A95E2F78F7099278A30910514F4805DB2
:1002800008956AE070E00E9403038F5B0895CF93A6
:10029000DF9383E50E9446028AE30E94460260E003
:1002A00070E08091070290E00E9431010E944602B6
:1002B000C6E0D2E061E070E0888190E00E94310108
:1002C0000E94460260E070E0888190E00E94310167
:1002D0000E9446028FE20E94460280E2DF91CF91A7
:1002E0000C944602FC01329640E06150710902C054
:1002F0002191420F9F01281B390B26173707C4F3A2
:10030000842F809508951092130210921202109279
:10031000140210921502109216020895CF93DF93E3
:10032000C0E0D0E020E030E042E050E0FA01EC5ED6
:10033000FD4F8081882399F1808190E0BC0160535A
:1003400071096A30710510F4CB0113C0BC0161560C
:1003500071096630710518F4875591090AC0BC010E
:10036000615471096630710510F4C79702C080E0CE
:1003700090E02130310539F02230310551F021155E
:10038000310559F408C074E0880F991F7A95E1F798
:1003900002C0982F8827C80FD91F2F5F3F4F4150A9
:1003A000510920F6C11584E0D8071CF4D7FD04C01C
:1003B00005C0CFEFD3E002C0C0E0D0E00E948301CF
:1003C000CE01DF91CF910895CF93DF93C0E0D0E0CD
:1003D00080E090E022E030E0AAE0B4E6F901EC5ED3
:1003E000FD4F4081442311F1408150E040535109B9
:1003F0004A30510510F040E050E08130910541F065
:100400008230910559F0009781F4C40FD51F0DC0BB
:10041000A49FB001A59F700D112405C0B49FB00129
:10042000B59F700D1124C60FD71F019621503109B9
:10043000A8F6CD3281E0D8071CF4D7FD04C005C072
:10044000CCE2D1E002C0C0E0D0E00E948301CE0146
:10045000DF91CF9108951092C50088E08093C40089
:100460001092C00088E98093C10086E08093C200AA
:1004700008951092CD001092CC001092C80088E030
:100480008093C90086E08093CA0008959091C000CF
:1004900095FFFCCF8093C60008959091C80095FF0A
:1004A000FCCF8093CE000895CF93DF93EC0102C080
:1004B0000E94460289918111FBCFDF91CF9108956F
:1004C0008091C00087FFFCCF8091C6000895809185
:1004D000C80087FFFCCF8091CE000895EAE7F0E0E6
:1004E00080EA808310927B0080EC80937C008FE90F
:1004F0009FE00197F1F700C0000080818064808355
:10050000089580E480BF10927A0080937B0081E0A0
:1005100080937C000895CF93DF93EC0180917A0063
:1005200084FFFCCF20917900922F80E02091780009
:10053000820F911D811592406CF08AEA90E00E9432
:10054000AA008FE891E00197F1F700C00000C1E038
:10055000D0E019C0C130D10561F49FEF2BE782E9EB
:10056000915020408040E1F700C00000C0E0D0E0A2
:100570000AC082E890E00E94AA008FE891E001970B
:10058000F1F700C00000CE01DF91CF910895CF9325
:10059000DF93EC0100B605FE1AC08130910561F4CD
:1005A0002FEF8BE792E9215080409040E1F700C0A7
:1005B0000000C0E0D0E017C082E890E00E94AA00EE
:1005C0008FE891E00197F1F700C000000CC08AEAC3
:1005D00090E00E94AA008FE891E00197F1F700C037
:1005E0000000C1E0D0E0CE01DF91CF9108950E94DC
:1005F00039020E946E028FB780688FBF80E090E062
:100600000E948B02FDCF97FB072E16F4009407D0B3
:1006100077FD09D00E943A0307FC05D03EF490957F
:1006200081959F4F0895709561957F4F0895052E90
:1006300097FB16F4009407D057FD0DD00E944E038F
:1006400007FC09D07EF490958095709561957F4F59
:100650008F4F9F4F089550954095309521953F4F6E
:100660004F4F5F4F08950E947003B7FF0895821B9C
:10067000930B0895AA1BBB1B51E107C0AA1FBB1F08
:10068000A617B70710F0A61BB70B881F991F5A951E
:10069000A9F780959095BC01CD010895A1E21A2E8D
:1006A000AA1BBB1BFD010DC0AA1FBB1FEE1FFF1F16
:1006B000A217B307E407F50720F0A21BB30BE40B66
:1006C000F50B661F771F881F991F1A9469F76095AD
:1006D0007095809590959B01AC01BD01CF01089567
:1006E000A29FB001B39FC001A39F01D0B29F700D24
:0C06F000811D1124911D0895F894FFCF86
:1006FC00FFFF01050320FF02D5FFFF0105031EFFCD
:02070C0003D612
:00000001FF
