:100000000C9472000C9493000C9493000C94930045
:100010000C9493000C9493000C9493000C94930014
:100020000C9493000C9493000C9493000C94930004
:100030000C9493000C9493000C9493000C949300F4
:100040000C9493000C9493000C9493000C949300E4
:100050000C9493000C9493000C9493000C949300D4
:100060000C9493000C9493000C9493000C949300C4
:100070000C9493000C9493000C9493000C949300B4
:100080000C9493000C9493000C9493000C949300A4
:100090000C9493000C9493000C9493000C94930094
:1000A0000C9493000C9493000C9493000C94930084
:1000B0000C9493000C9493000C9493000C94930074
:1000C0000C9493000C9493000C9493000C94930064
:1000D0000C9493000C9493000C9493000C94930054
:1000E0000C94930011241FBECFEFD1E2DEBFCDBF31
:1000F00000E00CBF12E0A0E0B2E0E4E4F4E000E0D5
:100100000BBF02C007900D92A831B107D9F722E0CA
:10011000A8E1B2E001C01D92AA31B207E1F70E9446
:100120001F020C9420020C9400008FEF87B983B358
:10013000876083BB0895CF93DF931F921F92CDB743
:10014000DEB788B914BA1A82198205C089819A81EA
:1001500001969A83898389819A8188379105B0F3C2
:1001600084E084BB1A82198205C089819A81019634
:100170009A83898389819A81803E9140B0F314BA31
:100180001A82198205C089819A8101969A8389838E
:1001900089819A8188379105B0F30F900F90DF9194
:1001A000CF910895CF93DF931F921F92CDB7DEB703
:1001B0000E9495001A82198205C089819A81019650
:1001C0009A83898389819A81883E9D4FB0F388E321
:1001D0000E949B008FE00E949B0086E00E949B0093
:1001E00084E10E949B0081E00E949B0082E00E94CB
:1001F0009B0010921902109218020F900F90DF913D
:10020000CF910895803140F0883218F0883318F487
:1002100003C088E201C080E08093180210921902A6
:1002200080680C949B001F93CF93DF931F921F92C3
:10023000CDB7DEB7182F2091180230911902203166
:100240003105A8F02832310540F428E230E030933F
:1002500019022093180288E208C02833310538F0CB
:10026000109219021092180280E00E94020120915F
:100270001802309119022F5F3F4F309319022093DB
:10028000180218B981E084BB1A82198205C08981DD
:100290009A8101969A83898389819A818837910509
:1002A000B0F385E084BB1A82198205C089819A81E6
:1002B00001969A83898389819A81803E9140B0F327
:1002C00081E084BB1A82198205C089819A810196D6
:1002D0009A83898389819A8188379105B0F30F9039
:1002E0000F90DF91CF911F910895CF93DF93EC0191
:1002F00002C00E94130189918111FBCFDF91CF9140
:100300000895CF93DF931F921F92CDB7DEB788B9C0
:1003100081E084BB1A82198205C089819A81019685
:100320009A83898389819A8188379105B0F385E022
:1003300084BB1A82198205C089819A8101969A83A9
:10034000898389819A81803E9140B0F381E084BBAA
:100350001A82198205C089819A8101969A838983BC
:1003600089819A8188379105B0F30F900F90DF91C2
:10037000CF9108950F931F93CF93DF93EB0128E064
:10038000829FC001112480640E949B008E01085F3F
:100390001F4F89910E948101C017D107D1F7DF91CA
:1003A000CF911F910F910895CF93DF93CDB7DEB713
:1003B00068970FB6F894DEBF0FBECDBF88E0E0E0CF
:1003C000F2E0DE01519601900D928A95E1F788E006
:1003D000E8E0F2E0DE01199601900D928A95E1F7CE
:1003E00088E0E0E1F2E0DE01119601900D928A953D
:1003F000E1F7BE016F5E7F4F80E00E94BA01BE014F
:10040000675F7F4F81E00E94BA01BE016F5F7F4F3F
:1004100082E00E94BA01809118020E94020168964F
:100420000FB6F894DEBF0FBECDBFDF91CF91089518
:1004300087EF84B98DE18CBD1DBC08950895FFCF71
:04044000F894FFCF5E
:100444001212131E021F111F04040A11001F0404B8
:080454001D0915150110101F10
:00000001FF
