:100000000C9472000C9493000C9493000C94930045
:100010000C9493000C94CB000C94ED000C94930082
:100020000C9493000C9493000C9493000C94930004
:100030000C9493000C9493000C9493000C949300F4
:100040000C9493000C9495000C9493000C949300E2
:100050000C9493000C9493000C9493000C949300D4
:100060000C9493000C9493000C9493000C949300C4
:100070000C9493000C9493000C9493000C949300B4
:100080000C9493000C9493000C9493000C949300A4
:100090000C9493000C9493000C9493000C94930094
:1000A0000C9493000C9493000C9493000C94930084
:1000B0000C9493000C9493000C9493000C94930074
:1000C0000C9493000C9493000C9493000C94930064
:1000D0000C9493000C9493000C9493000C94930054
:1000E0000C94930011241FBECFEFD1E2DEBFCDBF31
:1000F00000E00CBF12E0A0E0B2E0E0E7F6E000E0D4
:100100000BBF02C007900D92A032B107D9F712E0E1
:10011000A0E2B2E001C01D92A732B107E1F70E9450
:1001200008010C9436030C9400001F920F920FB636
:100130000F9211248F939F9380912002909121021E
:100140000196909321028093200280912002909149
:1001500021028436910569F4809122029091230254
:100160000196909323028093220210922102109212
:10017000200280912002909121028F709070892B33
:1001800019F481E0809324029F918F910F900FBE0C
:100190000F901F9018951F920F920FB60F920BB6EB
:1001A0000F9211248F939F93EF93FF938FB78F77C5
:1001B0008FBFE1E8F0E0808194E0892780838FB7EA
:1001C00080688FBFFF91EF919F918F910F900BBE31
:1001D0000F900FBE0F901F9018951F920F920FB6A1
:1001E0000F9211248F938091810082FD0BC0109299
:1001F000210210922002109223021092220281E02A
:10020000809324028F910F900FBE0F901F9018952E
:100210008FB78F778FBF0E94DA011092800088E03D
:1002200080938100109282001092850010928400C9
:1002300082E080936F0080E792E090938900809342
:1002400088008AE080936A0080E38DBB8FB7816865
:100250008FBF80E092E00E947E0281E080932402C2
:10026000809124028823E1F380912202909123025D
:1002700081519E4020F0109223021092220286E0CB
:100280000E940D02809122029091230268E572E0A3
:100290000E942203862F805D0E941E02809122020E
:1002A000909123026CE370E00E942203CB016AE08C
:1002B00070E00E942203805D0E941E028AE30E9479
:1002C0001E0280912202909123026CE370E00E9452
:1002D00022036AE070E00E942203862F805D0E9464
:1002E0001E0280912202909123026CE370E00E9432
:1002F00022036AE070E00E942203805D0E941E02D9
:100300008AE30E941E0280912002909121026AE0FD
:1003100070E00E942203862F805D0E941E02809161
:100320002002909121026AE070E00E942203805D29
:100330000E941E021092240293CF8FEF87B983B3DD
:10034000876083BB0895DF93CF930F920F92CDB751
:10035000DEB788B914BA1A82198205C089819A81D8
:1003600001969A83898389819A8188379105B0F3B0
:1003700084E084BB1A82198205C089819A81019622
:100380009A83898389819A81805E9140B0F314BAFF
:100390001A82198205C089819A8101969A8389837C
:1003A00089819A8188379105B0F30F900F90CF9192
:1003B000DF910895DF93CF930F920F92CDB7DEB701
:1003C0008FEF87B983B3876083BB1A82198205C018
:1003D00089819A8101969A83898389819A81885E2D
:1003E0009D4FB0F388E30E94A3018FE00E94A30118
:1003F00086E00E94A30184E10E94A30181E00E94A3
:10040000A30182E00E94A30110922602109225020D
:100410000F900F90CF91DF910895803138F088329E
:1004200010F488E203C0883308F080E0809325024E
:100430001092260280680E94A30108951F93DF9303
:10044000CF930F920F92CDB7DEB7182F8091250270
:100450009091260280319105A0F08832910540F4F8
:1004600088E290E0909326028093250288E207C0FC
:10047000C89738F0109226021092250280E00E9460
:100480000D028091250290912602019690932602FA
:100490008093250218B981E084BB1A82198205C0B5
:1004A00089819A8101969A83898389819A81883783
:1004B0009105B0F385E084BB1A82198205C0898159
:1004C0009A8101969A83898389819A81805E91407D
:1004D000B0F381E084BB1A82198205C089819A81B8
:1004E00001969A83898389819A8188379105B0F32F
:1004F0000F900F90CF91DF911F910895CF93DF93CD
:10050000EC0103C00E941E02219688818823D1F746
:10051000DF91CF910895DF93CF930F920F92CDB7D4
:10052000DEB788B981E084BB1A82198205C089814F
:100530009A8101969A83898389819A818837910566
:10054000B0F385E084BB1A82198205C089819A8143
:1005500001969A83898389819A81805E9140B0F364
:1005600081E084BB1A82198205C089819A81019633
:100570009A83898389819A8188379105B0F30F9096
:100580000F90CF91DF9108950F931F93CF93DF9337
:100590008B01880F880F880F80640E94A301C0E040
:1005A000D0E0F80181918F010E948B022196C83022
:1005B000D105B9F7DF91CF911F910F910895DF9386
:1005C000CF93CDB7DEB768970FB6F894DEBF0FBEF6
:1005D000CDBFDE011196E7E1F2E088E001900D92D7
:1005E0008150E1F7DE011996EFE0F2E088E001903A
:1005F0000D928150E1F7DE015196E7E0F2E088E0EC
:1006000001900D928150E1F7BE016F5F7F4F0E9414
:10061000C40281E0BE01675F7F4F0E94C40282E096
:10062000BE016F5E7F4F0E94C402809125020E942E
:100630000D0268960FB6F894DEBF0FBECDBFCF9106
:10064000DF910895AA1BBB1B51E107C0AA1FBB1F66
:10065000A617B70710F0A61BB70B881F991F5A954E
:10066000A9F780959095BC01CD010895F894FFCF2E
:1006700054696D653D20001D0915150110101F04FA
:10068000040A11001F04041212131E021F111F007E
:00000001FF
