:100000000C9472000C948B000C948B000C948B005D
:100010000C948B000C948B000C948B000C948B0034
:100020000C948B000C948B000C948B000C948B0024
:100030000C948B000C948B000C948B000C948B0014
:100040000C948B000C948B000C948B000C948B0004
:100050000C948B000C948B000C948B000C948B00F4
:100060000C948B000C948B000C948B000C948B00E4
:100070000C948B000C948B000C948B000C948B00D4
:100080000C948B000C948B000C948B000C948B00C4
:100090000C948B000C948B000C948B000C948B00B4
:1000A0000C948B000C948B000C948B000C948B00A4
:1000B0000C948B000C948B000C948B000C948B0094
:1000C0000C948B000C948B000C948B000C948B0084
:1000D0000C948B000C948B000C948B000C948B0074
:1000E0000C948B0011241FBECFEFD1E2DEBFCDBF39
:1000F00000E00CBF12E0A0E0B2E0E4EBF1E000E0D1
:100100000BBF02C007900D92A430B107D9F70E942F
:100110008D000C94D8000C9400008FE087B920E08B
:1001200030E040E050E060E971E015C0F901E050D6
:10013000FE4F808188B984EF91E0FB013197F1F7A0
:100140000197D9F72F5F3F4F2430310514F020E09D
:1001500030E04F5F5F4F443D510544F380E197E24B
:10016000FB013197F1F70197D9F740E050E0F90131
:10017000E050FE4F808188B984EF91E0FB01319718
:10018000F1F70197D9F72150304037FF02C023E043
:1001900030E04F5F5F4F4332510549F780E197E20E
:1001A000FB013197F1F70197D9F740E050E0D3CF49
:0401B000F894FFCFF1
:0401B4000903060C29
:00000001FF
