:100000000C949F000C94C0000C94C0000C94C00091
:100010000C94C0000C94C0000C94C0000C94C00060
:100020000C94C0000C94C0000C94C0000C94C00050
:100030000C94C0000C94C0000C94C0000C94C00040
:100040000C94C0000C94C0000C94C0000C94C00030
:100050000C94C0000C94C0000C94C0000C94C00020
:100060000C94C0000C942A020C94C0000C94C000A4
:100070000C94C0000C9489010C94C0000C94C00036
:100080000C94C0000C94C0000C94C0000C94C000F0
:100090000C94C0000C94C0000C94C0000C94C000E0
:1000A0000C94C0000C94C0000C94C0000C94C000D0
:1000B0000C94C0000C94C0000C94C0000C94C000C0
:1000C0000C94C0000C94C0000C94C0000C94C000B0
:1000D0000C94C0000C94C0000C94C0000C94C000A0
:1000E0000C94C00008000000BE922449123EABAA46
:1000F000AA2ABECDCCCC4C3E00000080BEABAAAA42
:10010000AA3E00000000BF000000803F0000000089
:1001100000084178D3BB4387D1133D190E3CC3BDC2
:100120004282AD2B3E68EC8276BED98FE1A93E4C6F
:1001300080EFFFBE01C4FF7F3F00000000001124DC
:100140001FBECFEFD1E2DEBFCDBF00E00CBF12E09B
:10015000A0E0B2E0E8EDFEE000E00BBF02C00790D7
:100160000D92AE32B107D9F712E0AEE2B2E001C0B3
:100170001D92A135B107E1F70E94CB020C946A07EA
:100180000C940000CF92DF92EF92FF920F931F9397
:100190007B018C01D42EC22E442381F00E9478056D
:1001A000862F04C06AE00E940D07DA9491E0D91608
:1001B000C9F76AE00E940D07892F27C00E947805C1
:1001C00070E0882777FD8095982F0E94A6059B01F7
:1001D000AC01C801B7010E94AB0400E010E0EC2CB8
:1001E000FF2408C020E030E040E251E40E9477069E
:1001F0000F5F1F4F0E151F05ACF30E947805DC0141
:10020000CB016AE070E00E941907805D1F910F9199
:10021000FF90EF90DF90CF90089570E061507040B4
:10022000660F771F660F771F02C0969587956A95B0
:10023000E2F78F7090708A30910510F0895C089514
:10024000805D0895BC0140E050E020E030E0FB011B
:10025000E20FF31F8081480F511D2F5F3F4F2D305C
:100260003105A9F7842F80950895AF92BF92CF9260
:10027000DF92EF92FF920F931F93AA2797FDA0950D
:10028000BA2FBC01CD010E94A6057B018C0120E0A4
:1002900030E44CE156E40E9477065B016C0160E0BB
:1002A00070EC8FE794E4A80197010E94AB049B01D6
:1002B000AC01C601B5010E9410051F910F91FF907E
:1002C000EF90DF90CF90BF90AF90089520E030E4A2
:1002D0004CE156E40E9410050E94370620E030EE03
:1002E00046E755E40E94100522E63BEE4BE55BE352
:1002F0000E94AC049B01AC0160E070E080E89FE3E9
:100300000E94100520E030E848E853E40E94AB0466
:1003100008951F920F920FB60F920BB60F921124F1
:100320002F933F934F935F936F937F938F939F93FD
:10033000AF93BF93EF93FF9380912E0290912F0282
:10034000019690932F0280932E0280912E0290911D
:100350002F0204972CF180912E0290912F02873664
:100360009105F4F420913602309137024091380221
:10037000509139028091780090917900A0E0B0E02E
:100380009370A070B070820F931FA41FB51F80934D
:10039000360290933702A0933802B093390247C0D7
:1003A00080912E0290912F02873691050CF43FC068
:1003B0002091360230913702409138025091390233
:1003C0008091780090917900A0E0B0E09370A070E7
:1003D000B070820F931FA41FB51F809336029093B5
:1003E0003702A0933802B0933902609136027091BF
:1003F0003702809138029091390224E630E040E0E3
:1004000050E00E942D07442737FD4095542F20933C
:1004100036023093370240933802509339020E94DB
:10042000810381E090E09093310280933002FF914C
:10043000EF91BF91AF919F918F917F916F915F915C
:100440004F913F912F910F900BBE0F900FBE0F90C9
:100450001F9018951F920F920FB60F920BB60F9226
:1004600011242F933F934F935F936F937F938F93B9
:100470009F93AF93BF93EF93FF938091C60084E265
:10048000809340028DE280934102809342028DE48A
:100490008093430284E58093440287E5809345027C
:1004A00060913A0270913B0280913C0290913D0232
:1004B00042E020E00E94C2008093460260913A022E
:1004C00070913B0280913C0290913D0241E020E01E
:1004D0000E94C200809347028EE28093480260919E
:1004E0003A0270913B0280913C0290913D0240E0C3
:1004F00021E00E94C2008093490260913A0270910B
:100500003B0280913C0290913D0240E022E00E943B
:10051000C20080934A0283E480934B028AE2809374
:100520004C0210924D0220E030E040E050E0F90132
:10053000E05CFD4F8081480F511D2F5F3F4F2D30F4
:100540003105A9F7842F809580934D028DE080932B
:100550004E028AE080934F021092500280E492E0B3
:100560000E94900480E40E94DF038FE40E94C10394
:10057000FF91EF91BF91AF919F918F917F916F917B
:100580005F914F913F912F910F900BBE0F900FBE37
:100590000F901F901895CF93DF930E949C030E94A9
:1005A00056030E9457040E94730380E00E94DF03F9
:1005B00080E092E00E94D203C0E9D1E08091300255
:1005C00090913102892BD1F38091360290913702BC
:1005D000A0913802B09139020E9435010E94660153
:1005E00060933A0270933B0280933C0290933D02E9
:1005F000F89487E00E94DF0360913A0270913B0219
:1006000080913C0290913D0242E020E00E94C200B5
:100610000E94C10360913A0270913B0280913C02BA
:1006200090913D0241E020E00E94C2000E94C1037F
:100630008EE20E94C10360913A0270913B02809168
:100640003C0290913D0240E021E00E94C2000E94E5
:10065000C10360913A0270913B0280913C029091FB
:100660003D0240E022E00E94C2000E94C10388E0F7
:1006700092E00E94D20378941092310210923002DC
:1006800010923602109237021092380210923902FC
:1006900010922F0210922E0288E893E1FE0131970A
:1006A000F1F70197D9F70E94730388CF8EEF80BBD3
:1006B000EAE7F0E080EA808310927B0080E4809398
:1006C0007C0080EA9FE00197F1F78081806480835D
:1006D000089580E480BF10927A0080937B0081E0CF
:1006E00080937C000895F894EAE7F0E088EA80833C
:1006F00080EA9FE00197F1F780818064808378949D
:100700000895F89410927A00789408958FEF87B93D
:1007100083B3876083BB089588B914BA95E3892FA2
:100720008A95F1F784E084BBE8ECF0E03197F1F7CB
:1007300014BA9A95F1F708958FEF87B983B387605C
:1007400083BB88EE93E020E931E0F9013197F1F7BE
:100750000197D9F788E30E948C038FE00E948C03F5
:1007600086E00E948C0384E10E948C0381E00E9459
:100770008C0382E00E948C0380E29EE40197F1F7F3
:10078000089588B921E024BB95E3892F8A95F1F774
:1007900085E084BBE8ECF0E03197F1F724BB9A9553
:1007A000F1F70895CF93DF93EC0103C00E94C103DA
:1007B000219688818823D1F7DF91CF9108958068B1
:1007C0000E948C0308956295660F660F607C680F27
:1007D000862F80680E948C0308958295880F880F69
:1007E000807C0E94DF038DE092E00E94D203089596
:1007F00088B921E024BB95E3892F8A95F1F785E03C
:1008000084BBE8ECF0E03197F1F724BB9A95F1F75F
:1008100008950F931F93CF93DF938B01880F880F59
:10082000880F80640E948C03C0E0D0E0F8018191C1
:100830008F010E94F8032196C830D105B9F7DF91E6
:10084000CF911F910F910895DF93CF93CDB7DEB76E
:1008500060970FB6F894DEBF0FBECDBFDE011196D4
:10086000E6E2F2E088E001900D928150E1F7DE01CE
:100870001996EEE1F2E088E001900D928150E1F7E7
:10088000BE016F5F7F4F0E94090481E0BE01675F78
:100890007F4F0E94090480E00E94DF0360960FB63C
:1008A000F894DEBF0FBECDBFCF91DF9108951092B7
:1008B000C50087E68093C4001092C00088E9809349
:1008C000C10086E08093C20008951092C50087E6BB
:1008D0008093C4001092C00088E08093C10086E03D
:1008E0008093C20008951092CD001092CC00109217
:1008F000C80088E18093C90086E08093CA0008950B
:10090000982F8091C00085FFFCCF9093C60008957A
:10091000982F8091C80085FFFCCF9093CE0008955A
:10092000FC0107C08091C00085FFFCCF9093C600FA
:10093000319690819923B1F708958091C00087FF87
:10094000FCCF8091C60008958091C80087FFFCCF3E
:100950008091CE0008955058BB27AA270ED048C1D9
:1009600039D130F03ED120F031F49F3F11F41EF424
:100970002EC10EF4E095E7FB24C1E92F4AD180F3A4
:10098000BA17620773078407950718F071F49EF58C
:1009900062C10EF4E0950B2EBA2FA02D0B01B90108
:1009A00090010C01CA01A0011124FF27591B99F0E5
:1009B000593F50F4503E68F11A16F040A22F232FF1
:1009C000342F4427585FF3CF469537952795A79541
:1009D000F0405395C9F77EF41F16BA0B620B730BE8
:1009E000840BBAF09150A1F0FF0FBB1F661F771F59
:1009F000881FC2F70EC0BA0F621F731F841F48F40E
:100A0000879577956795B795F7959E3F08F0B3CF93
:100A10009395880F08F09927EE0F9795879508957D
:100A20000CD0E6C0DED040F0D5D030F021F45F3FEE
:100A300019F0C7C0511110C1CAC0EBD098F3992367
:100A4000C9F35523B1F3951B550BBB27AA27621792
:100A50007307840738F09F5F5F4F220F331F441FD7
:100A6000AA1FA9F333D00E2E3AF0E0E830D091500F
:100A70005040E695001CCAF729D0FE2F27D0660FFC
:100A8000771F881FBB1F261737074807AB07B0E83B
:100A900009F0BB0B802DBF01FF2793585F4F2AF051
:100AA0009E3F510568F08DC0D7C05F3FECF3983E84
:100AB000DCF3869577956795B795F7959F5FC9F7AE
:100AC000880F911D9695879597F90895E1E0660F37
:100AD000771F881FBB1F621773078407BA0720F0B0
:100AE000621B730B840BBA0BEE1F88F7E095089519
:100AF00098D088F09F5790F0B92F9927B751A0F060
:100B0000D1F0660F771F881F991F1AF0BA95C9F7A1
:100B100012C0B13081F09FD0B1E008959CC0672F22
:100B2000782F8827B85F39F0B93FCCF38695779551
:100B30006795B395D9F73EF490958095709561953A
:100B40007F4F8F4F9F4F0895E89409C097FB3EF465
:100B500090958095709561957F4F8F4F9F4F99230A
:100B6000A9F0F92F96E9BB279395F6958795779588
:100B70006795B795F111F8CFFAF4BB0F11F460FF48
:100B80001BC06F5F7F4F8F4F9F4F16C0882311F0A0
:100B900096E911C0772321F09EE8872F762F05C0B4
:100BA000662371F096E8862F70E060E02AF09A954F
:100BB000660F771F881FDAF7880F9695879597F944
:100BC000089597F99F6780E870E060E008959FEFCF
:100BD00080EC089500240A941616170618060906D4
:100BE000089500240A9412161306140605060895A3
:100BF000092E0394000C11F4882352F0BB0F40F42B
:100C0000BF2B11F460FF04C06F5F7F4F8F4F9F4F6A
:100C1000089557FD9058440F551F59F05F3F71F0EC
:100C20004795880F97FB991F61F09F3F79F0879553
:100C30000895121613061406551FF2CF4695F1DFDC
:100C400008C0161617061806991FF1CF869571056C
:100C5000610508940895E894BB2766277727CB01A0
:100C600097F908950EF0A6C0B2CF6894AACFD9DF45
:100C7000C8F39923D1F3C6F3DF93CF931F930F9358
:100C8000FF92C92FDD2788232AF02197660F771F4F
:100C9000881FDAF720E030E040E85FEB9FE3883917
:100CA00020F0803E30F021968F7756DEE4EEF0E0C3
:100CB00003C052DEE1E1F1E08BD08B01BE01EC011B
:100CC000FB2E6F5771097595771F880B990B3EDFC7
:100CD00028E132E741E35FE316D0AF2D9801AE0182
:100CE000FF900F911F91CF91DF9147DE81CF0BD005
:100CF0007FCF70DF28F075DF18F0952309F061CF02
:100D000066CF1124A9CF85DFA0F3959FD1F3950F6E
:100D100050E0551F629FF001729FBB27F00DB11D7F
:100D2000639FAA27F00DB11DAA1F649F6627B00D0F
:100D3000A11D661F829F2227B00DA11D621F739FF8
:100D4000B00DA11D621F839FA00D611D221F749F06
:100D50003327A00D611D231F849F600D211D822F4D
:100D6000762F6A2F11249F5750408AF0E1F0882394
:100D70004AF0EE0FFF1FBB1F661F771F881F9150A1
:100D80005040A9F79E3F510570F01BCF65CF5F3FE4
:100D9000ECF3983EDCF3869577956795B795F795D4
:100DA000E7959F5FC1F7FE2B880F911D969587955C
:100DB00097F908959F3F31F0915020F487957795EA
:100DC0006795B795880F911D9695879597F9089522
:100DD000DF93CF931F930F93FF92EF92DF927B01EC
:100DE0008C01689405C0DA2EEF018DDFFE01E894D6
:100DF000A5912591359145915591AEF3EF01BDDD5A
:100E0000FE019701A801DA9479F7DF90EF90FF9047
:100E10000F911F91CF91DF910895991B79E004C044
:100E2000991F961708F0961B881F7A95C9F7809529
:100E30000895AA1BBB1B51E107C0AA1FBB1FA61721
:100E4000B70710F0A61BB70B881F991F5A95A9F773
:100E500080959095BC01CD01089597FB092E05263C
:100E60000ED057FD04D014D00AD0001C38F4509591
:100E70004095309521953F4F4F4F5F4F0895F6F7BE
:100E800090958095709561957F4F8F4F9F4F0895F6
:100E9000A1E21A2EAA1BBB1BFD010DC0AA1FBB1F7E
:100EA000EE1FFF1FA217B307E407F50720F0A21BF0
:100EB000B30BE40BF50B661F771F881F991F1A945D
:100EC00069F760957095809590959B01AC01BD0187
:080ED000CF010895F894FFCF53
:100ED80054656D70203D2000206465670020202047
:100EE80020202020202020202020202020001F1B20
:0E0EF800151515151B1F1F15151B15151F1F92
:00000001FF
