:100000000C949F000C94C0000C94C0000C94C00091
:100010000C94C0000C94C0000C94C0000C94C00060
:100020000C94C0000C94C0000C94C0000C94C00050
:100030000C94C0000C94C0000C94C0000C94C00040
:100040000C94C0000C94C0000C94C0000C94C00030
:100050000C94C0000C94C0000C94C0000C94C00020
:100060000C94C0000C940D010C94C0000C94C000C2
:100070000C94C0000C944E020C94C0000C94C00070
:100080000C94C0000C94C0000C94C0000C94C000F0
:100090000C94C0000C94C0000C94C0000C94C000E0
:1000A0000C94C0000C94C0000C94C0000C94C000D0
:1000B0000C94C0000C94C0000C94C0000C94C000C0
:1000C0000C94C0000C94C0000C94C0000C94C000B0
:1000D0000C94C0000C94C0000C94C0000C94C000A0
:1000E0000C94C00008000000BE922449123EABAA46
:1000F000AA2ABECDCCCC4C3E00000080BEABAAAA42
:10010000AA3E00000000BF000000803F0000000089
:1001100000084178D3BB4387D1133D190E3CC3BDC2
:100120004282AD2B3E68EC8276BED98FE1A93E4C6F
:1001300080EFFFBE01C4FF7F3F00000000001124DC
:100140001FBECFEFD1E2DEBFCDBF00E00CBF12E09B
:10015000A0E0B2E0E4E5FEE000E00BBF02C00790E3
:100160000D92A232B107D9F712E0A2E2B2E001C0CB
:100170001D92A433B107E1F70E94EF020C94280707
:100180000C940000CF92DF92EF92FF920F931F9397
:100190007B018C01D42EC22E442381F00E943605AF
:1001A000862F04C06AE00E94CB06DA9491E0D9164B
:1001B000C9F76AE00E94CB06892F27C00E94360546
:1001C00070E0882777FD8095982F0E9464059B0139
:1001D000AC01C801B7010E94690400E010E0EC2CFA
:1001E000FF2408C020E030E040E251E40E943506E0
:1001F0000F5F1F4F0E151F05ACF30E943605DC0183
:10020000CB016AE070E00E94D706805D1F910F91DC
:10021000FF90EF90DF90CF9008951F920F920FB64E
:100220000F920BB60F9211242F933F934F935F932E
:100230006F937F938F939F93AF93BF93EF93FF93AE
:100240008091C6006091300270913102809132023B
:100250009091330242E020E00E94C20080930602A7
:10026000609130027091310280913202909133029C
:1002700041E020E00E94C2008093070260913002BA
:1002800070913102809132029091330240E021E07E
:100290000E94C20080930902609130027091310285
:1002A000809132029091330240E022E00E94C2002D
:1002B00080930A0210920D0220E030E040E050E00E
:1002C000F901E050FE4F8081480F511D2F5F3F4FD5
:1002D0002D303105A9F7842F809580930D0281E0A0
:1002E00090E090932F0280932E02FF91EF91BF91A7
:1002F000AF919F918F917F916F915F914F913F91BE
:100300002F910F900BBE0F900FBE0F901F9018955E
:10031000CF92DF92EF92FF920F931F937B018C019C
:10032000D42EC22E442381F00E943605862F04C0AD
:100330006AE00E94CB06DA9491E0D916C9F76AE028
:100340000E94CB06892F27C00E94360570E08827BF
:1003500077FD8095982F0E9464059B01AC01C80130
:10036000B7010E94690400E010E0EC2CFF2408C0F3
:1003700020E030E040E251E40E9435060F5F1F4F5D
:100380000E151F05ACF30E943605DC01CB016AE0B7
:1003900070E00E94D7061F910F91FF90EF90DF90C1
:1003A000CF90089570E061507040660F771F660F20
:1003B000771F02C0969587956A95E2F78F709070C7
:1003C0008A30910510F0895C0895805D0895BC0124
:1003D00040E050E020E030E0FB01E20FF31F8081BD
:1003E000480F511D2F5F3F4F2D303105A9F7842F46
:1003F00080950895AF92BF92CF92DF92EF92FF92D5
:100400000F931F93AA2797FDA095BA2FBC01CD018A
:100410000E9464057B018C0120E030E44CE156E44D
:100420000E9435065B016C0160E070EC8FE794E49C
:10043000A80197010E9469049B01AC01C601B501A6
:100440000E94CE041F910F91FF90EF90DF90CF900C
:10045000BF90AF90089520E030E44CE156E40E9454
:10046000CE040E94F50520E030EE46E755E40E94F8
:10047000CE0422E63BEE4BE55BE30E946A049B015F
:10048000AC0160E070E080E89FE30E94CE0420E0D1
:1004900030E848E853E40E94690408951F920F92DF
:1004A0000FB60F920BB60F9211242F933F934F93D9
:1004B0005F936F937F938F939F93AF93BF93EF93CC
:1004C000FF93809122029091230201969093230240
:1004D00080932202809122029091230204972CF1B2
:1004E000809122029091230287369105F4F42091A5
:1004F0002A0230912B0240912C0250912D028091C2
:10050000780090917900A0E0B0E09370A070B07096
:10051000820F931FA41FB51F80932A0290932B0272
:10052000A0932C02B0932D0247C08091220290919B
:100530002302873691050CF43FC020912A023091A6
:100540002B0240912C0250912D02809178009091C5
:100550007900A0E0B0E09370A070B070820F931F9C
:10056000A41FB51F80932A0290932B02A0932C0204
:10057000B0932D0260912A0270912B0280912C027F
:1005800090912D0224E630E040E050E00E94EB061E
:10059000442737FD4095542F20932A0230932B0295
:1005A00040932C0250932D020E94640481E090E05D
:1005B0009093250280932402FF91EF91BF91AF9118
:1005C0009F918F917F916F915F914F913F912F916B
:1005D0000F900BBE0F900FBE0F901F9018954F926B
:1005E0005F926F927F928F929F92AF92BF92CF92C3
:1005F000DF92FF920F931F93DF93CF93CDB7DEB7B8
:1006000068970FB6F894DEBF0FBECDBFDE01199616
:10061000E1E1F2E080E101900D928150E1F78EE09E
:1006200089838DE08A838BE08B8387E08C838FE3E3
:100630008D838E838F8389E388878FEF87B98AB90B
:100640000E9439040E94E5030E94560400E010E075
:10065000FF242E010894411C511C65E0662E712C6C
:100660006C0E7D1E50ED852E57E0952E49E0C42E70
:10067000D12CCC0EDD1E32E0A32EB12CF801E3709C
:10068000F070D201AE0FBF1F8C918BB9E60DF71D34
:10069000808188B90F5F1F4FC4010197F1F783E094
:1006A00001321807D0F08091240290912502029720
:1006B00091F4109225021092240210922A021092B4
:1006C0002B0210922C0210922D02109223021092F3
:1006D00022020E94560400E010E0809124029091D2
:1006E0002502019709F058C080912A0290912B02AF
:1006F000A0912C02B0912D020E94FA010E942B02BF
:1007000060933002709331028093320290933302EF
:1007100060913002709131028091320290913302E7
:1007200042E020E00E948801F601E80FF11D80817F
:100730008D836091300270913102809132029091EC
:10074000330241E020E00E948801F601E80FF11D2C
:10075000808180688E836091300270913102809137
:1007600032029091330240E021E00E948801F601BC
:10077000E80FF11D80818F83B0922502A0922402A0
:1007800010922A0210922B0210922C0210922D022B
:10079000109223021092220280912E0290912F0239
:1007A000892B09F46BCFEF2DF0E0E050FE4F8081F4
:1007B000882329F080810E940E04F3945FCF109269
:1007C0002F0210922E02FF2459CF1092C50087E607
:1007D0008093C4001092C00088E98093C10086E035
:1007E0008093C20008951092C50087E68093C400EC
:1007F0001092C00088E08093C10086E08093C20020
:1008000008951092CD001092CC001092C80088E19B
:100810008093C90086E08093CA000895982F809144
:10082000C00085FFFCCF9093C6000895982F80915B
:10083000C80085FFFCCF9093CE000895FC0107C04F
:100840008091C00085FFFCCF9093C60031969081C7
:100850009923B1F708958091C00087FFFCCF809164
:10086000C60008958091C80087FFFCCF8091CE001C
:1008700008958EEF80BBEAE7F0E080EA8083109273
:100880007B0080E480937C0080EA9FE00197F1F791
:10089000808180648083089580E480BF10927A0014
:1008A00080937B0081E080937C000895F894EAE7D0
:1008B000F0E088EA808380EA9FE00197F1F7808189
:1008C0008064808378940895F89410927A007894E4
:1008D00008955058BB27AA270ED048C139D130F00F
:1008E0003ED120F031F49F3F11F41EF42EC10EF4DE
:1008F000E095E7FB24C1E92F4AD180F3BA176207DC
:1009000073078407950718F071F49EF562C10EF421
:10091000E0950B2EBA2FA02D0B01B90190010C010F
:10092000CA01A0011124FF27591B99F0593F50F427
:10093000503E68F11A16F040A22F232F342F44277F
:10094000585FF3CF469537952795A795F040539577
:10095000C9F77EF41F16BA0B620B730B840BBAF047
:100960009150A1F0FF0FBB1F661F771F881FC2F7B2
:100970000EC0BA0F621F731F841F48F487957795C6
:100980006795B795F7959E3F08F0B3CF9395880F7D
:1009900008F09927EE0F9795879508950CD0E6C03B
:1009A000DED040F0D5D030F021F45F3F19F0C7C061
:1009B000511110C1CAC0EBD098F39923C9F3552344
:1009C000B1F3951B550BBB27AA2762177307840742
:1009D00038F09F5F5F4F220F331F441FAA1FA9F3F8
:1009E00033D00E2E3AF0E0E830D091505040E695EA
:1009F000001CCAF729D0FE2F27D0660F771F881F4B
:100A0000BB1F261737074807AB07B0E809F0BB0B39
:100A1000802DBF01FF2793585F4F2AF09E3F51055D
:100A200068F08DC0D7C05F3FECF3983EDCF386954D
:100A300077956795B795F7959F5FC9F7880F911DD3
:100A40009695879597F90895E1E0660F771F881FBF
:100A5000BB1F621773078407BA0720F0621B730B72
:100A6000840BBA0BEE1F88F7E095089598D088F0B4
:100A70009F5790F0B92F9927B751A0F0D1F0660F8A
:100A8000771F881F991F1AF0BA95C9F712C0B130A5
:100A900081F09FD0B1E008959CC0672F782F882700
:100AA000B85F39F0B93FCCF3869577956795B395E4
:100AB000D9F73EF490958095709561957F4F8F4F53
:100AC0009F4F0895E89409C097FB3EF49095809558
:100AD000709561957F4F8F4F9F4F9923A9F0F92F04
:100AE00096E9BB279395F695879577956795B79582
:100AF000F111F8CFFAF4BB0F11F460FF1BC06F5F68
:100B00007F4F8F4F9F4F16C0882311F096E911C079
:100B1000772321F09EE8872F762F05C0662371F09A
:100B200096E8862F70E060E02AF09A95660F771FAE
:100B3000881FDAF7880F9695879597F9089597F9A2
:100B40009F6780E870E060E008959FEF80EC089573
:100B500000240A941616170618060906089500249C
:100B60000A9412161306140605060895092E039416
:100B7000000C11F4882352F0BB0F40F4BF2B11F48A
:100B800060FF04C06F5F7F4F8F4F9F4F089557FDE9
:100B90009058440F551F59F05F3F71F04795880FEB
:100BA00097FB991F61F09F3F79F087950895121682
:100BB00013061406551FF2CF4695F1DF08C016162E
:100BC00017061806991FF1CF8695710561050894DF
:100BD0000895E894BB2766277727CB0197F90895F6
:100BE0000EF0A6C0B2CF6894AACFD9DFC8F399237C
:100BF000D1F3C6F3DF93CF931F930F93FF92C92FC7
:100C0000DD2788232AF02197660F771F881FDAF7E0
:100C100020E030E040E85FEB9FE3883920F0803E41
:100C200030F021968F7756DEE4EEF0E003C052DE1E
:100C3000E1E1F1E08BD08B01BE01EC01FB2E6F579F
:100C400071097595771F880B990B3EDF28E132E714
:100C500041E35FE316D0AF2D9801AE01FF900F91F5
:100C60001F91CF91DF9147DE81CF0BD07FCF70DF17
:100C700028F075DF18F0952309F061CF66CF1124B5
:100C8000A9CF85DFA0F3959FD1F3950F50E0551FB5
:100C9000629FF001729FBB27F00DB11D639FAA27D1
:100CA000F00DB11DAA1F649F6627B00DA11D661F20
:100CB000829F2227B00DA11D621F739FB00DA11D41
:100CC000621F839FA00D611D221F749F3327A00DFB
:100CD000611D231F849F600D211D822F762F6A2F97
:100CE00011249F5750408AF0E1F088234AF0EE0F1C
:100CF000FF1FBB1F661F771F881F91505040A9F729
:100D00009E3F510570F01BCF65CF5F3FECF3983EDF
:100D1000DCF3869577956795B795F795E7959F5F8F
:100D2000C1F7FE2B880F911D9695879597F9089529
:100D30009F3F31F0915020F4879577956795B7954F
:100D4000880F911D9695879597F90895DF93CF9316
:100D50001F930F93FF92EF92DF927B018C016894B7
:100D600005C0DA2EEF018DDFFE01E894A5912591F3
:100D7000359145915591AEF3EF01BDDDFE0197012F
:100D8000A801DA9479F7DF90EF90FF900F911F910F
:100D9000CF91DF910895991B79E004C0991F9617B0
:100DA00008F0961B881F7A95C9F780950895AA1BAD
:100DB000BB1B51E107C0AA1FBB1FA617B70710F046
:100DC000A61BB70B881F991F5A95A9F78095909578
:100DD000BC01CD01089597FB092E05260ED057FDC5
:100DE00004D014D00AD0001C38F4509540953095AA
:100DF00021953F4F4F4F5F4F0895F6F7909580959F
:100E0000709561957F4F8F4F9F4F0895A1E21A2EE5
:100E1000AA1BBB1BFD010DC0AA1FBB1FEE1FFF1F9E
:100E2000A217B307E407F50720F0A21BB30BE40BEE
:100E3000F50B661F771F881F991F1A9469F7609535
:100E40007095809590959B01AC01BD01CF010895EF
:040E5000F894FFCF44
:100E5400242D2D4D545730302E3030432A000D0AA6
:100E6400003F065B4F666D7D077F6F777C395E7947
:020E740071000B
:00000001FF
